{
  "contractName": "CAPAChain",
  "abi": [
    {
      "constant": true,
      "inputs": [
        {
          "name": "",
          "type": "uint256"
        }
      ],
      "name": "quejasEmitidas",
      "outputs": [
        {
          "name": "",
          "type": "address"
        }
      ],
      "payable": false,
      "stateMutability": "view",
      "type": "function"
    },
    {
      "constant": false,
      "inputs": [
        {
          "name": "descripcion",
          "type": "string"
        }
      ],
      "name": "nuevaQueja",
      "outputs": [],
      "payable": false,
      "stateMutability": "nonpayable",
      "type": "function"
    },
    {
      "constant": true,
      "inputs": [],
      "name": "quejasRegistradas",
      "outputs": [
        {
          "name": "",
          "type": "address[]"
        }
      ],
      "payable": false,
      "stateMutability": "view",
      "type": "function"
    }
  ],
  "bytecode": "0x608060405234801561001057600080fd5b50610a5a806100206000396000f3fe608060405260043610610057576000357c0100000000000000000000000000000000000000000000000000000000900463ffffffff16806345ccaac41461005c5780634b99d70d146100d7578063cd12e55b1461019f575b600080fd5b34801561006857600080fd5b506100956004803603602081101561007f57600080fd5b810190808035906020019092919050505061020b565b604051808273ffffffffffffffffffffffffffffffffffffffff1673ffffffffffffffffffffffffffffffffffffffff16815260200191505060405180910390f35b3480156100e357600080fd5b5061019d600480360360208110156100fa57600080fd5b810190808035906020019064010000000081111561011757600080fd5b82018360208201111561012957600080fd5b8035906020019184600183028401116401000000008311171561014b57600080fd5b91908080601f016020809104026020016040519081016040528093929190818152602001838380828437600081840152601f19601f820116905080830192505050505050509192919290505050610249565b005b3480156101ab57600080fd5b506101b461034c565b6040518080602001828103825283818151815260200191508051906020019060200280838360005b838110156101f75780820151818401526020810190506101dc565b505050509050019250505060405180910390f35b60008181548110151561021a57fe5b906000526020600020016000915054906101000a900473ffffffffffffffffffffffffffffffffffffffff1681565b6000816102546103da565b8080602001828103825283818151815260200191508051906020019080838360005b83811015610291578082015181840152602081019050610276565b50505050905090810190601f1680156102be5780820380516001836020036101000a031916815260200191505b5092505050604051809103906000f0801580156102df573d6000803e3d6000fd5b50905060008190806001815401808255809150509060018203906000526020600020016000909192909190916101000a81548173ffffffffffffffffffffffffffffffffffffffff021916908373ffffffffffffffffffffffffffffffffffffffff160217905550505050565b606060008054806020026020016040519081016040528092919081815260200182805480156103d057602002820191906000526020600020905b8160009054906101000a900473ffffffffffffffffffffffffffffffffffffffff1673ffffffffffffffffffffffffffffffffffffffff1681526020019060010190808311610386575b5050505050905090565b604051610644806103eb8339019056fe608060405234801561001057600080fd5b506040516106443803806106448339810180604052602081101561003357600080fd5b81019080805164010000000081111561004b57600080fd5b8281019050602081018481111561006157600080fd5b815185600182028301116401000000008211171561007e57600080fd5b505092919050505033600160006101000a81548173ffffffffffffffffffffffffffffffffffffffff021916908373ffffffffffffffffffffffffffffffffffffffff1602179055506100cf6101e4565b606060405190810160405280600160009054906101000a900473ffffffffffffffffffffffffffffffffffffffff1673ffffffffffffffffffffffffffffffffffffffff1681526020018381526020016000151581525090506000819080600181540180825580915050906001820390600052602060002090600302016000909192909190915060008201518160000160006101000a81548173ffffffffffffffffffffffffffffffffffffffff021916908373ffffffffffffffffffffffffffffffffffffffff16021790555060208201518160010190805190602001906101b992919061021e565b5060408201518160020160006101000a81548160ff02191690831515021790555050505050506102c3565b606060405190810160405280600073ffffffffffffffffffffffffffffffffffffffff168152602001606081526020016000151581525090565b828054600181600116156101000203166002900490600052602060002090601f016020900481019282601f1061025f57805160ff191683800117855561028d565b8280016001018555821561028d579182015b8281111561028c578251825591602001919060010190610271565b5b50905061029a919061029e565b5090565b6102c091905b808211156102bc5760008160009055506001016102a4565b5090565b90565b610372806102d26000396000f3fe608060405260043610610057576000357c0100000000000000000000000000000000000000000000000000000000900463ffffffff16806314df1a781461005c5780634768e0121461014e5780639e18d087146101a5575b600080fd5b34801561006857600080fd5b506100956004803603602081101561007f57600080fd5b81019080803590602001909291905050506101fc565b604051808473ffffffffffffffffffffffffffffffffffffffff1673ffffffffffffffffffffffffffffffffffffffff1681526020018060200183151515158152602001828103825284818151815260200191508051906020019080838360005b838110156101115780820151818401526020810190506100f6565b50505050905090810190601f16801561013e5780820380516001836020036101000a031916815260200191505b5094505050505060405180910390f35b34801561015a57600080fd5b506101636102fa565b604051808273ffffffffffffffffffffffffffffffffffffffff1673ffffffffffffffffffffffffffffffffffffffff16815260200191505060405180910390f35b3480156101b157600080fd5b506101ba610320565b604051808273ffffffffffffffffffffffffffffffffffffffff1673ffffffffffffffffffffffffffffffffffffffff16815260200191505060405180910390f35b60008181548110151561020b57fe5b90600052602060002090600302016000915090508060000160009054906101000a900473ffffffffffffffffffffffffffffffffffffffff1690806001018054600181600116156101000203166002900480601f0160208091040260200160405190810160405280929190818152602001828054600181600116156101000203166002900480156102dd5780601f106102b2576101008083540402835291602001916102dd565b820191906000526020600020905b8154815290600101906020018083116102c057829003601f168201915b5050505050908060020160009054906101000a900460ff16905083565b600160009054906101000a900473ffffffffffffffffffffffffffffffffffffffff1681565b600260009054906101000a900473ffffffffffffffffffffffffffffffffffffffff168156fea165627a7a72305820eef96b8cf2fa4118fe074ac0e627f975b4d3b2b57d716b8d5a6c97ce8a755cc90029a165627a7a72305820a8ae502e88fef552f06efc5000f3f6e16a31d5b763e4fac4509c98abf84bf7fb0029",
  "source": "pragma solidity >=0.4.17 <0.6.0;\r\n\r\ncontract CAPAChain {\r\n    address[] public quejasEmitidas;\r\n    function nuevaQueja(string memory descripcion) public {\r\n        address nQueja = address(new registraQueja(descripcion));\r\n        quejasEmitidas.push(nQueja);\r\n    }\r\n    function quejasRegistradas() public view returns (address[] memory) {\r\n        return quejasEmitidas;\r\n    }\r\n\r\n    /*\r\n    function verQueja() public view  {\r\n\r\n    }\r\n    */\r\n}\r\ncontract registraQueja {\r\n    struct Queja {\r\n        address quienReporta;\r\n        string descripcion;\r\n        bool cerrado;\r\n    }\r\n    Queja[] public quejas;\r\n    address public usuario;\r\n    address public gerente;\r\n    //string public objetoCaso; // personal, area, proceso, etc..\r\n    //string public detalleObjCaso; // proceso X, area Y, personal Z, etc...\r\n    //string public tipoCuestion; //queja, reclamos, apelaciones, etc...\r\n    // string public descripcion; // que paso?\r\n\r\n    modifier restringido() {\r\n        require(msg.sender == gerente,\"Sender not authorized.\");\r\n        _;\r\n    }\r\n    constructor (string memory descripcion) public {\r\n        // 1. Fecha y naturaleza de la queja\r\n        usuario = msg.sender;\r\n        Queja memory nuevaQueja = Queja({\r\n            quienReporta : usuario,\r\n            descripcion : descripcion,\r\n            cerrado : false\r\n        });\r\n        quejas.push(nuevaQueja);\r\n    }\r\n    /*\r\n    function asignarCaso(uint index) public restringido {\r\n        // 2. A quien en QSI se le asigno el caso y cuando\r\n        //require()\r\n\r\n        Queja storage queja = quejas[index];\r\n    }\r\n    */\r\n    /*\r\n    function accionCausaMitigacion() {\r\n        // 3. La accion inmediata para tratar el problema.\r\n        // 4. El metodo, resultado y fecha de la investigación de causa.\r\n        // 5. La accion para mitigar la causa y su fecha.\r\n        // 6. Comentarios y fecha de cierre de la acción.\r\n    }\r\n    */\r\n    /*\r\n    function evaluacionEfectividad() {\r\n    }\r\n    */\r\n}",
  "sourcePath": "/home/daniel/capaweb/bc/contracts/Capachain.sol",
  "compiler": {
    "name": "solc",
    "version": "0.5.0+commit.1d4f565a.Emscripten.clang"
  },
  "schemaVersion": "3.0.9",
  "updatedAt": "2019-05-23T01:15:53.841Z",
  "devdoc": {
    "methods": {}
  },
  "userdoc": {
    "methods": {}
  }
}