{
  "contractName": "Queja",
  "abi": [
    {
      "constant": true,
      "inputs": [
        {
          "name": "",
          "type": "uint256"
        }
      ],
      "name": "queja",
      "outputs": [
        {
          "name": "quienReporta",
          "type": "address"
        },
        {
          "name": "nombre",
          "type": "string"
        },
        {
          "name": "correo",
          "type": "string"
        },
        {
          "name": "descripcion",
          "type": "string"
        },
        {
          "name": "fecha",
          "type": "string"
        },
        {
          "name": "cerrado",
          "type": "bool"
        }
      ],
      "payable": false,
      "stateMutability": "view",
      "type": "function"
    },
    {
      "inputs": [
        {
          "name": "_descripcion",
          "type": "string"
        },
        {
          "name": "_nombre",
          "type": "string"
        },
        {
          "name": "_correo",
          "type": "string"
        },
        {
          "name": "_fecha",
          "type": "string"
        }
      ],
      "payable": false,
      "stateMutability": "nonpayable",
      "type": "constructor"
    },
    {
      "constant": true,
      "inputs": [],
      "name": "verDetalle",
      "outputs": [
        {
          "name": "",
          "type": "address"
        },
        {
          "name": "",
          "type": "string"
        },
        {
          "name": "",
          "type": "string"
        },
        {
          "name": "",
          "type": "string"
        },
        {
          "name": "",
          "type": "string"
        }
      ],
      "payable": false,
      "stateMutability": "view",
      "type": "function"
    }
  ],
  "bytecode": "0x60806040523480156200001157600080fd5b5060405162000e7538038062000e75833981018060405260808110156200003757600080fd5b8101908080516401000000008111156200005057600080fd5b828101905060208101848111156200006757600080fd5b81518560018202830111640100000000821117156200008557600080fd5b50509291906020018051640100000000811115620000a257600080fd5b82810190506020810184811115620000b957600080fd5b8151856001820283011164010000000082111715620000d757600080fd5b50509291906020018051640100000000811115620000f457600080fd5b828101905060208101848111156200010b57600080fd5b81518560018202830111640100000000821117156200012957600080fd5b505092919060200180516401000000008111156200014657600080fd5b828101905060208101848111156200015d57600080fd5b81518560018202830111640100000000821117156200017b57600080fd5b50509291905050506200018d620002f5565b60c0604051908101604052803373ffffffffffffffffffffffffffffffffffffffff1681526020018581526020018481526020018681526020018381526020016000151581525090506000819080600181540180825580915050906001820390600052602060002090600602016000909192909190915060008201518160000160006101000a81548173ffffffffffffffffffffffffffffffffffffffff021916908373ffffffffffffffffffffffffffffffffffffffff16021790555060208201518160010190805190602001906200026992919062000344565b5060408201518160020190805190602001906200028892919062000344565b506060820151816003019080519060200190620002a792919062000344565b506080820151816004019080519060200190620002c692919062000344565b5060a08201518160050160006101000a81548160ff0219169083151502179055505050505050505050620003f3565b60c060405190810160405280600073ffffffffffffffffffffffffffffffffffffffff168152602001606081526020016060815260200160608152602001606081526020016000151581525090565b828054600181600116156101000203166002900490600052602060002090601f016020900481019282601f106200038757805160ff1916838001178555620003b8565b82800160010185558215620003b8579182015b82811115620003b75782518255916020019190600101906200039a565b5b509050620003c79190620003cb565b5090565b620003f091905b80821115620003ec576000816000905550600101620003d2565b5090565b90565b610a7280620004036000396000f3fe60806040526004361061004c576000357c0100000000000000000000000000000000000000000000000000000000900463ffffffff1680631fd112491461005157806327137fca14610258575b600080fd5b34801561005d57600080fd5b5061006661048e565b604051808673ffffffffffffffffffffffffffffffffffffffff1673ffffffffffffffffffffffffffffffffffffffff16815260200180602001806020018060200180602001858103855289818151815260200191508051906020019080838360005b838110156100e45780820151818401526020810190506100c9565b50505050905090810190601f1680156101115780820380516001836020036101000a031916815260200191505b50858103845288818151815260200191508051906020019080838360005b8381101561014a57808201518184015260208101905061012f565b50505050905090810190601f1680156101775780820380516001836020036101000a031916815260200191505b50858103835287818151815260200191508051906020019080838360005b838110156101b0578082015181840152602081019050610195565b50505050905090810190601f1680156101dd5780820380516001836020036101000a031916815260200191505b50858103825286818151815260200191508051906020019080838360005b838110156102165780820151818401526020810190506101fb565b50505050905090810190601f1680156102435780820380516001836020036101000a031916815260200191505b50995050505050505050505060405180910390f35b34801561026457600080fd5b506102916004803603602081101561027b57600080fd5b810190808035906020019092919050505061076e565b604051808773ffffffffffffffffffffffffffffffffffffffff1673ffffffffffffffffffffffffffffffffffffffff168152602001806020018060200180602001806020018615151515815260200185810385528a818151815260200191508051906020019080838360005b838110156103195780820151818401526020810190506102fe565b50505050905090810190601f1680156103465780820380516001836020036101000a031916815260200191505b50858103845289818151815260200191508051906020019080838360005b8381101561037f578082015181840152602081019050610364565b50505050905090810190601f1680156103ac5780820380516001836020036101000a031916815260200191505b50858103835288818151815260200191508051906020019080838360005b838110156103e55780820151818401526020810190506103ca565b50505050905090810190601f1680156104125780820380516001836020036101000a031916815260200191505b50858103825287818151815260200191508051906020019080838360005b8381101561044b578082015181840152602081019050610430565b50505050905090810190601f1680156104785780820380516001836020036101000a031916815260200191505b509a505050505050505050505060405180910390f35b600060608060608060008060008154811015156104a757fe5b906000526020600020906006020190508060000160009054906101000a900473ffffffffffffffffffffffffffffffffffffffff1681600101826002018360040184600301838054600181600116156101000203166002900480601f0160208091040260200160405190810160405280929190818152602001828054600181600116156101000203166002900480156105815780601f1061055657610100808354040283529160200191610581565b820191906000526020600020905b81548152906001019060200180831161056457829003601f168201915b50505050509350828054600181600116156101000203166002900480601f01602080910402602001604051908101604052809291908181526020018280546001816001161561010002031660029004801561061d5780601f106105f25761010080835404028352916020019161061d565b820191906000526020600020905b81548152906001019060200180831161060057829003601f168201915b50505050509250818054600181600116156101000203166002900480601f0160208091040260200160405190810160405280929190818152602001828054600181600116156101000203166002900480156106b95780601f1061068e576101008083540402835291602001916106b9565b820191906000526020600020905b81548152906001019060200180831161069c57829003601f168201915b50505050509150808054600181600116156101000203166002900480601f0160208091040260200160405190810160405280929190818152602001828054600181600116156101000203166002900480156107555780601f1061072a57610100808354040283529160200191610755565b820191906000526020600020905b81548152906001019060200180831161073857829003601f168201915b5050505050905095509550955095509550509091929394565b60008181548110151561077d57fe5b90600052602060002090600602016000915090508060000160009054906101000a900473ffffffffffffffffffffffffffffffffffffffff1690806001018054600181600116156101000203166002900480601f01602080910402602001604051908101604052809291908181526020018280546001816001161561010002031660029004801561084f5780601f106108245761010080835404028352916020019161084f565b820191906000526020600020905b81548152906001019060200180831161083257829003601f168201915b505050505090806002018054600181600116156101000203166002900480601f0160208091040260200160405190810160405280929190818152602001828054600181600116156101000203166002900480156108ed5780601f106108c2576101008083540402835291602001916108ed565b820191906000526020600020905b8154815290600101906020018083116108d057829003601f168201915b505050505090806003018054600181600116156101000203166002900480601f01602080910402602001604051908101604052809291908181526020018280546001816001161561010002031660029004801561098b5780601f106109605761010080835404028352916020019161098b565b820191906000526020600020905b81548152906001019060200180831161096e57829003601f168201915b505050505090806004018054600181600116156101000203166002900480601f016020809104026020016040519081016040528092919081815260200182805460018160011615610100020316600290048015610a295780601f106109fe57610100808354040283529160200191610a29565b820191906000526020600020905b815481529060010190602001808311610a0c57829003601f168201915b5050505050908060050160009054906101000a900460ff1690508656fea165627a7a7230582062543f2e4a9feab62d89080700a373ba81dcf865d3ecc4142bc9c06a6a63076e0029",
  "source": "pragma solidity >=0.4.17 <0.6.0;\r\n\r\ncontract CAPAFactory {\r\n    address[] public contratos;\r\n    function registrarQueja(string memory _descripcion, string memory _nombre, string memory _correo, string memory _fecha) public {\r\n        address contrato = address(new Queja(_descripcion, _nombre, _correo, _fecha));\r\n        contratos.push(contrato);\r\n    }\r\n    function listadoQuejas() public view returns (address[] memory) {\r\n        return contratos;\r\n    }\r\n\r\n    function quejasRegistradas() public view returns (address[] memory) {\r\n        return contratos;\r\n    }\r\n}\r\n\r\ncontract Queja {\r\n\r\n    struct DatosQueja {\r\n        address quienReporta;\r\n        string nombre;\r\n        string correo;\r\n        string descripcion;\r\n        string fecha;\r\n        bool cerrado;\r\n    }\r\n    DatosQueja[] public queja;\r\n    constructor(string memory _descripcion, string memory _nombre, string memory _correo, string memory _fecha) public {\r\n        DatosQueja memory nuevaQueja = DatosQueja({\r\n            quienReporta: msg.sender,\r\n            nombre: _nombre,\r\n            correo: _correo,\r\n            fecha: _fecha,\r\n            descripcion: _descripcion,\r\n            cerrado: false\r\n        });\r\n        queja.push(nuevaQueja);\r\n    }\r\n    function verDetalle() public view returns (address, string memory, string memory, string memory, string memory) {\r\n        DatosQueja storage q = queja[0];\r\n        return (q.quienReporta,q.nombre,q.correo,q.fecha,q.descripcion);\r\n    }\r\n}\r\n\r\n",
  "sourcePath": "/home/daniel/capaweb/bc/contracts/Capachain.sol",
  "compiler": {
    "name": "solc",
    "version": "0.5.0+commit.1d4f565a.Emscripten.clang"
  },
  "schemaVersion": "3.0.9",
  "updatedAt": "2019-05-24T02:55:42.415Z",
  "devdoc": {
    "methods": {}
  },
  "userdoc": {
    "methods": {}
  }
}